:020000040800F2
:10000000D02300200101000857190008E717000855
:100010005519000833020008712100080000000093
:10002000000000000000000000000000C91C0008E3
:100030003502000800000000E51B0008CB1C00088A
:100040001B0100081B0100081B0100081B01000820
:100050001B0100081B0100081B0100081B01000810
:100060001B0100081B0100081B0100081B01000800
:100070001B0100081B0100081B0100081B010008F0
:100080001B0100081B0100081B0100081B010008E0
:100090001B0100081B0100081B0100081B010008D0
:1000A0001B0100081B0100081B0100081B010008C0
:1000B000891D00081B0100081B0100081B01000826
:1000C0001B0100081B0100081B0100081B010008A0
:1000D0001B0100081B010008652100081B01000826
:1000E0001B0100081B0100081B010008DFF80CD0F1
:1000F00000F07EF800480047794D0008D02300202A
:100100000648804706480047FEE7FEE7FEE7FEE7B1
:10011000FEE7FEE7FEE7FEE7FEE7FEE7411D00081B
:10012000ED000008202A04DB203A21FA02F0002129
:10013000704721FA02F3D040C2F1200291400843F7
:100140001946704740EA01039B0703D009E008C93C
:10015000121F08C0042AFAD203E011F8013B00F88C
:10016000013B521EF9D27047D2B201E000F8012BD8
:10017000491EFBD270470022F6E710B513460A4627
:1001800004461946FFF7F0FF204610BD2DE9F05F49
:100190000546002092469B468846064681464024F6
:1001A0001BE02846414647462246FFF7BBFF534621
:1001B0005A46C01A914110D311461846224600F003
:1001C00029F82D1A67EB01084F462246012000212D
:1001D00000F020F817EB00094E41201EA4F10104A5
:1001E000DFDC484631462A464346BDE8F09F000022
:1001F000064C074D06E0E06840F0010394E8070074
:1002000098471034AC42F6D3FFF774FF54520008FD
:1002100074520008202A04DB203A00FA02F1002080
:1002200070479140C2F1200320FA03F31943904034
:100230007047FEE77047000010B590F821100024C9
:10024000022903D00421816301243DE001680A688A
:1002500022F00E020A6001680A6822F001020A60B8
:100260001A4A0168914201D1012121E0174A143252
:10027000914201D110211BE0144A2832914201D150
:10028000891515E0114A3C32914201D189140FE0E1
:100290000E4A5032914202D14FF4803108E00B4AAD
:1002A0006432914202D14FF4801101E04FF080712D
:1002B000064A083A5160012180F82110002180F897
:1002C0002010416B01B18847204610BD0800024054
:1002D0002DE9F84FDFF8ACA100220AF1040B144617
:1002E00001274FF00F090BF1040E00BF0B6807FA4E
:1002F00004F52B40AB4276D1DFF88CC14E68A6EBFB
:100300000C0866452BD00DDC032E34D005DC36B34B
:10031000012E19D0022E2FD11BE0112E16D0122E35
:100320002AD119E0B8F5881F19D006DCB8F5803F4E
:1003300015D0B8F5801F1FD111E0B8F5001F0ED001
:10034000B8F5041F18D10AE0CA6815E0CA68121D82
:1003500012E0CA6808320FE0CA680C320CE08A6802
:100360002AB1012A4FF0080203D0456104E00422BB
:1003700002E0056100E00022FF2B01D8054601E004
:1003800000F104054FEA840601D9A6F12006D5F84C
:1003900000C009FA06F82CEA080C02FA06F64CEA44
:1003A000060CC5F800C04D68ED0065D5374DAE6947
:1003B00046F00106AE61AD6924F0030605F00105C3
:1003C0000095334D06EB050CDCF80850A607360FF8
:1003D00009FA06F825EA0805DFF8B880404503D198
:1003E0004FF0000817E047E0DFF8AC80404502D14D
:1003F0004FF001080FE0DFF8A480404502D14FF034
:10040000020808E0DFF89880404502D14FF0030869
:1004100001E04FF0040808FA06F848EA0508CCF8AD
:1004200008804D68DAF80060ED03002D554601DACA
:100430001E4300E09E432E604D68DBF80060AD0374
:10044000002D5D4601DA1E4300E09E432E604D689C
:10045000DEF80060ED02002D754601DA1E4300E073
:100460009E432E604D68AD02002D0E4D2E6801DAC0
:100470001E4300E09E432E60641C102CFFF436AF38
:10048000BDE8F88F00040140000011100010024088
:100490000000014000080140000C01400010014034
:1004A000001401400C0401408068084000D0012085
:1004B0007047C2684A40C26070470AB10161704724
:1004C0000904FBE7014800687047000008000020AD
:1004D00002480168491C01607047000008000020C4
:1004E000074810B5016841F010010160032000F0D9
:1004F0008BF8002000F006F800F018F8002010BD7E
:100500000020024010B5044607484FF47A71006895
:10051000B0FBF1F000F0F0FD00222146501E00F08B
:1005200053F8002010BD00000C0000201E4808B544
:10053000816941F001018161806900F00100009052
:10054000032000F061F8002211466FF00B0000F06C
:100550003BF8002211466FF00A0000F035F8002247
:1005600011466FF0090000F02FF800221146501FCD
:1005700000F02AF800221146101F00F025F8002292
:100580001146901E00F020F800221146501E00F087
:100590001BF80648416821F0E0614160416841F084
:1005A0000071416008BD00000010024000000140E1
:1005B00000F01F020121914040094FF0E02202EBC0
:1005C0008000C0F800117047F0B40E4B1B680C4659
:1005D000C3F30223C3F10705042D00D90425191D17
:1005E000072901D2002300E0DB1E012606FA05F1EF
:1005F000491E214099409E40761E16403143F0BC72
:1006000001F0E0BA0CED00E0064900F007020868CE
:100610004FF6FF03184040EA0220034A10430860E7
:10062000704700000CED00E00000FA05BFF34F8FAB
:1006300005480168054A01F4E06111430160BFF318
:100640004F8F00BFFDE700000CED00E00400FA054D
:100650002DE9F047DFF83C8105460E46D8F800004A
:1006600000F00700B0420CD2D8F8001021F00701CA
:100670003143C8F80010D8F8000000F00700B0427D
:1006800063D12878444C800705D56068A96820F0BC
:10069000F000084360602878C00745D068680128EA
:1006A00016D02168022816D0890700294DDA616822
:1006B00021F0030101436160FFF704FF6968074609
:1006C00041F2883001290FD00229814619D027E054
:1006D00021688903E9E78901E7E700BFFFF7F2FE38
:1006E000C11B494501D918E081466068C0F381000B
:1006F0000128F3D118E000BFFFF7E4FEC11B494514
:100700000BD86068C0F381000228F5D10CE000BF6F
:10071000FFF7D8FEC11B494502D90320BDE8F08789
:10072000606810F00C0FF3D1D8F80010404601F0CB
:100730000701B1420BD9016821F007013143016083
:10074000006800F00700B04201D00120E6E72878F9
:10075000400705D56068E96820F4E0600843606000
:100760002878000706D56068296920F4605040EABF
:10077000C100606000F03CF86168084AC1F30311F1
:10078000515CC840064908600020FFF7BBFE00200E
:10079000C4E700000020024000100240055200089B
:1007A0000C00002001480068704700000C00002089
:1007B0000448054900684968044AC1F30221515CB4
:1007C000C84070470C00002000100240155200087D
:1007D0000448054900684968044AC1F3C221515CD4
:1007E000C84070470C00002000100240155200085D
:1007F00010B514A385B0D3E90010D3E9022301ACEE
:1008000000910DC413A0144B006804905A6813485B
:1008100002F00C0104290FD008290DD1C2F3834442
:10082000D2031DF8041009D55A6804ABC2F3404244
:100830009A5CB0FBF2F0484305B010BD084848434D
:10084000FAE7000002030405060708090A0B0C0D6D
:100850000E0F1010010200000010024000127A007A
:1008600000093D002DE9F84F04460078BB4DC00754
:1008700048D06868C0F38100012807D06868C0F3D9
:100880008100022809D16868C00306D52868800362
:1008900038D5606800286FD034E06068B0F5803FDC
:1008A0000BD010B1B0F5A02F11D0286820F4803003
:1008B0002860286820F4802002E0286840F4803016
:1008C0002860606888B1FFF7FDFD064609E02868EA
:1008D00040F480202860F0E7FFF7F4FD801B6428D7
:1008E00076D828688003F7D50CE0FFF7EBFD0646C5
:1008F00005E000BFFFF7E6FD801B6428F0D82868FC
:100900008003F7D42078964E80074FF001094FF00E
:1009100000083BD5686810F00C0F07D06868C0F37A
:100920008100022809D16868C00306D428688007BE
:1009300014D5206901281FD110E02069B0B1C6F894
:100940000090FFF7BFFD074605E000BFFFF7BAFDC7
:10095000C01B0228C4D828688007F7D528686169B9
:1009600020F0F80040EAC10028600FE0C6F80080DF
:10097000FFF7A8FD074606E0EDE000BFFFF7A2FD88
:10098000C01B0228ACD828688007F7D4207800075D
:100990002ED57448A169E1B1C0F80090FFF792FD2F
:1009A000074604E0FFF78EFDC01B022810D8686AD6
:1009B0008007F7D56C484FF4FA510068B0FBF1F0AE
:1009C000009000BF0098411E00910028F9D10FE06F
:1009D00082E0C0F80080FFF775FD074605E000BF24
:1009E000FFF770FDC01B022876D8686A8007F7D42D
:1009F0002078400761D5E8690027C00008D4E8697D
:100A000040F08050E861E869012700F080500090D4
:100A100056480168C90513D40168834641F48071C2
:100A20000160FFF74FFD824606E000BFFFF74AFD79
:100A3000A0EB0A0064284FD8DBF80000C005F5D50C
:100A4000E06801280AD008B1052813D0286A20F0F0
:100A500001002862286A20F0040002E0286A40F0C1
:100A600001002862E06841F2883B98B1FFF72AFD57
:100A700082460BE0286A40F004002862EEE700BFDF
:100A8000FFF720FDA0EB0A0159455CD8286A8007D2
:100A9000F6D50CE0FFF716FD824605E0FFF712FDE4
:100AA000A0EB0A0159454ED8286A8007F6D4012FD9
:100AB00003D1E86920F08050E861E06990B369688B
:100AC000C1F38101022946D00228C6F8608004D013
:100AD000FFF7F8FC044639E035E0FFF7F3FC074682
:100AE00005E000BFFFF7EEFCC01B02282BD82868EA
:100AF0008001F7D4206AB0F5803F05D16868A1680D
:100B000020F4003008436860D4E9080108436968AC
:100B100021F4741108436860C6F86090FFF7D2FCB6
:100B2000044606E015E000BFFFF7CCFC001B0228DE
:100B300009D828688001F7D50BE000BFFFF7C2FC99
:100B4000001B022802D90320BDE8F88F2868800125
:100B5000F4D40020F8E70120F6E70000001002407E
:100B600000004242800442420C000020007000401D
:100B700070B5040005D00025A56294F8510010B1AD
:100B800004E0012070BD204600F034F8022084F813
:100B900051002068016821F040010160D4E90101A1
:100BA0000843D4E903121143084361690843218BC8
:100BB00001F400710843E1690843216A0843A16A0E
:100BC000084321680860A069042101EA1040616AB5
:100BD0000843216848602168E06A08612068C169AB
:100BE00021F40061C1616565012084F85100002095
:100BF00070BD000010B50068124986B088421ED151
:100C00001148C16941F48041C161C0690F4C00F4D1
:100C1000804004904FF42040009002200190032077
:100C2000039069462046FFF753FB00214FF48040B4
:100C3000CDE90001029169462046FFF749FB06B065
:100C400010BD00000038004000100240000C0140C0
:100C50002DE9F84F044640680026984617460D4691
:100C60004FF00409B0F5827F01D1A06890B194F8EB
:100C70005000012819D04FF0010B84F850B0FFF755
:100C800021FC009094F851004FF0000A01280ED08A
:100C900002267FE084F8519013460A462046CDF89C
:100CA000008000F031F9BDE8F88F0220FBE7002D4D
:100CB0006FD0002F6DD084F85190C4F854A0A56374
:100CC000A787E787C4F830A0A4F834A0A4F836A01A
:100CD000C4F840A0C4F844A0A0684FF40047B8424C
:100CE00004D12068016821F4804101602068016816
:100CF000490603D4016841F040010160E068B8B1E1
:100D000033E020688168C90706D0007B05F8010B35
:100D1000E08F401EE0870BE0B8F1000F23D018F100
:100D2000010005D0FFF7CEFB0099411A41451AD2C8
:100D3000E08F0028E5D11BE020688168C90706D054
:100D4000C06825F8020BE08F401EE0870DE0B8F187
:100D5000000F08D018F1010007D0FFF7B3FB00998E
:100D6000411A414501D3032614E0E08F0028E3D166
:100D70006068B0F5827F0AD1A068B84202D0B0F5B1
:100D8000806F04D12068016821F040010160606D2E
:100D900000B1012684F851B084F850A0304682E7B3
:100DA0002DE9F84F044690F8500000269946174662
:100DB0000D4601280DD04FF0010B84F850B0FFF71D
:100DC00081FB804694F85100B246012804D00226E7
:100DD00094E00220BDE8F88F002D7BD0002F79D061
:100DE000032084F85100C4F854A02563A786E78641
:100DF000C4F838A0A4F83CA0A4F83EA0C4F844A0CD
:100E0000C4F840A0A068B0F5004F04D12068016884
:100E100041F48041016020680168490603D40168FB
:100E200041F040010160E068B0F5006F606804D0F7
:100E300030B3E08E012823D03EE010B1E08E0128CF
:100E40001AD135F8021B206805E0206881688907FF
:100E500006D535F8021BC160E08E401EE0860BE02F
:100E6000B9F1000F34D019F1010005D0FFF72AFBCA
:100E7000A0EB080149452BD2E08E0028E5D11EE009
:100E8000216815F8010B087306E02068816889075E
:100E900006D515F8011B0173E08E401EE0860BE0BD
:100EA000B9F1000F14D019F1010005D0FFF70AFBCA
:100EB000A0EB080149450BD2E08E0028E5D14B4656
:100EC000012202212046CDF8008000F0B3FE10B1CF
:100ED000032613E011E042464946204600F09AFE00
:100EE00018B101262020606508E0A06818B92068C4
:100EF000C16880680090606D00B1012684F851B02F
:100F000084F850A0304665E72DE9F84F044690F884
:100F1000500000260A9F9A4693460D464FF001085E
:100F200001280ED0012084F85000FFF7CBFA81464B
:100F300094F85100616801280CD0B1F5827F07D187
:100F400002E00220BDE8F88FA16809B9042801D0A9
:100F50000226BDE055B1BBF1000F07D0BAF1000F7A
:100F600004D094F85100012802D004E00126AFE03B
:100F7000052084F8510000206065C4F838B0A4F85A
:100F80003EA0A4F83CA02563A4F836A0A4F834A0A1
:100F90002064606420680168490603D4016841F058
:100FA00040010160E068B0F5006F606804D0E8B30C
:100FB000E08E01283BD06AE010B1E08E01282ED1EE
:100FC000216835F8020BC860E08E401EE08626E0FE
:100FD000B8F1000F0DD0E08E58B120688168890704
:100FE00007D535F8021BC160E08E401EE0864FF049
:100FF0000008E08F58B120688168C90707D0C06831
:101000002BF8020BE08F401EE0874FF00108781CA0
:1010100005D0FFF757FAA0EB0900B84246D2E08EA0
:101020000028D5D1E08F0028D2D136E0FFE7216833
:1010300015F8010B0873E08E401EE08627E000BF24
:10104000B8F1000F0DD0E08E58B120688168890793
:1010500007D515F8011B0173E08E401EE0864FF0A6
:101060000008E08F58B120688168C90707D0C068C0
:101070000BF8010BE08F401EE0874FF00108781C51
:1010800005D0FFF71FFAA0EB0900B8420ED2E08EA0
:101090000028D5D1E08F0028D2D13B460122022181
:1010A0002046CDF8009000F0C5FD08B103260FE002
:1010B0004A463946204600F0ADFD18B101262020F1
:1010C000606505E0A06818B92068C1688068009074
:1010D00001205034607000202070304632E74FF01D
:1010E000E0210428086903D020F00400086170475B
:1010F00040F00400FAE7704710B5401EB0F1807F61
:1011000001D3012010BD4FF0E02460610F21601772
:1011100000F058FD0020A06107202061002010BDD4
:1011200010B5FFF7E8FF10BD7047704730B590F875
:101130003C20012A20D0012280F83C20022380F8A4
:101140003D3003685C6824F070045C6003685C6890
:101150000D682C435C6003689C6824F080049C60EC
:1011600003689C6849680C439C6080F83D2000211E
:1011700080F83C10084630BD022030BD10B5040098
:1011800003D094F83D0010B107E0012010BD00200D
:1011900084F83C00204600F00DF8022084F83D0061
:1011A000211D206800F0F6FD012084F83D0000209C
:1011B00010BD000008B50068B0F1804F08D10548A7
:1011C000C16941F00101C161C06900F001000090F6
:1011D00008BD0000001002400168CA6842F0010228
:1011E000CA600068016841F0010101600020704799
:1011F00070B5044690F83C00012817D0012584F80A
:101200003C50022084F83D002068826822F077027A
:1012100022F47F4282600868502837D00DDC2028F5
:1012200058D005DC88B3102841D150E0022070BDB1
:10123000302852D040283AD13EE060282ED0702885
:101240000BD0B0F5805F03D0B0F5005F2FD110E078
:101250002068816821F0070115E04A68083120689C
:101260000AC900F0CDFD2168886840F077008860E9
:101270001DE04A68083120680AC900F0C1FD2068F5
:10128000816841F48041816011E01DE0CA684968CD
:10129000206800F0C7FD5021206806E0CA68496850
:1012A000206800F0D0FD6021206800F0B3FD3C34E0
:1012B00065700020207070BDCA684968206800F021
:1012C000B1FD40212068F0E700212068EDE7102102
:1012D0002068EAE720212068E7E730212068E4E77A
:1012E000704770B50446006801694FF00005C943B6
:1012F000890715D4C168C943890711D4E91E016162
:1013000001202077206880698007204602D0FFF7FF
:10131000E7FF04E000F098F8204600F096F8257703
:1013200020680169C943490717D4C168C9434907FF
:1013300013D46FF0040101610220207720688069D6
:1013400010F4407F204602D0FFF7CAFF04E000F00F
:101350007BF8204600F079F8257720680169C943B9
:10136000090716D4C168C943090712D46FF00801F0
:101370000161042020772068C0698007204602D0E0
:10138000FFF7AEFF04E000F05FF8204600F05DF8E4
:10139000257720680169C943C90617D4C168C943C4
:1013A000C90613D46FF0100101610820207720686E
:1013B000C06910F4407F204602D0FFF791FF04E09F
:1013C00000F042F8204600F040F8257720680169D7
:1013D000C943C90708D1C168C943C90704D1891ED7
:1013E0000161204600F032F820680169C94309060E
:1013F00009D4C168C943090605D46FF080010161B1
:101400002046FFF791FE20680169C943490609D4C7
:10141000C168C943490605D46FF040010161204607
:1014200000F024F820680169C94389060BD4C1681B
:10143000C943890607D46FF0200101612046BDE849
:101440007040FFF772BE70BD70477047054910B518
:10145000884206D1044803F099FBBDE8104002F031
:1014600049BE10BD8C00002000000020704770476E
:1014700070B5026804461068D168536910F00F0F08
:1014800051D003F0010501F4907635435DD0C207D9
:1014900005D0CA0503D5E26B42F00102E2634207C0
:1014A00005D5DA0703D0E26B42F00202E26382075D
:1014B00005D5DA0703D0E26B42F00402E2630207CB
:1014C00005D5DA0703D0E26B42F00802E263E26B73
:1014D000002A34D0800604D5880602D5204600F0C4
:1014E000DAFC20684069E16BC0F3801001F008016C
:1014F0000143204624D000F0C0FC20684169490621
:101500001AD5416921F040014161606BA0B11B49CE
:101510004163606BFEF790FE002810D0606B416B5A
:10152000BDE87040084783060FD58B060DD52046D1
:10153000BDE8704000F0AFBC2046FFF798FF70BDDB
:10154000FFF795FF0020E06370BD030606D50B068C
:1015500004D52046BDE8704000F0A0BD4006F3D59C
:101560004806F1D5D168204621F04001D160202104
:1015700084F8391000F036F970BD00006B1E0008C9
:1015800070B5040004D094F83900002510B106E0CD
:10159000012070BD84F83850204600F023F8242044
:1015A00084F839002068C16821F40051C1602046E8
:1015B00000F0BCFC2068016921F4904101612068C1
:1015C000416921F02A0141612068C16841F400515C
:1015D000C160E563202084F8390084F83A000020D7
:1015E00070BD000070B51C4E036800241B4902202A
:1015F00003221B4D86B0B34211D18B6943F4804363
:101600008B618969039201F4804104910102CDE963
:10161000001069462846FEF75BFE281513E0114EC0
:10162000B34217D1CB6943F40033CB61C96903924C
:1016300001F4003104910421CDE9001069462846E7
:10164000FEF746FE0820CDE90004694628460294CC
:10165000FEF73EFE06B070BD0038014000100240AB
:10166000000801400044004090F83A30202B22D17D
:10167000F9B1F2B190F83830012B1CD0816282852B
:10168000C2850021C163222280F83A2080F83810F8
:101690000168CA6842F48072CA6001684A6942F00F
:1016A00001024A610068C16841F02001C160002068
:1016B00070470120704702207047000010B5006895
:1016C000074988420AD10121064802F013FCBDE80F
:1016D0001040012203490448FFF7C6BF10BD0000B7
:1016E00000440040100000200C0100202DE9F843C8
:1016F000044690F839001F4616460D46202850D162
:10170000A5B19EB194F8380001284AD0012084F890
:1017100038004FF00008C4F83C80212084F83900DC
:10172000FEF7D0FEA6848146E68426E00120BDE8CF
:10173000F883E08C401EE084A0684B46B0F5805FE3
:101740004FF000024FF080012046009703D000F0D8
:10175000D6FCE8B90DE000F0D2FCC8B928882168B1
:10176000C0F308004860206908B16D1C05E0AD1C9D
:1017700003E0216815F8010B4860E08C0028D8D1FF
:101780004B46002240212046009700F0B8FC08B1EB
:101790000320CCE7202084F8390084F8388000202A
:1017A000C5E70220C3E790F83930202B18D1A9B142
:1017B000A2B190F83830012B12D001628284C28429
:1017C0000021C163212280F8392080F83810006898
:1017D000C16841F08001C16000207047012070475E
:1017E000022070477047FEE730B5174885B0816921
:1017F00041F020018161816901F02001049181693A
:1018000041F004018161816901F004010491816961
:1018100041F0080181618069012400F00800002581
:101820000490CDE90045694608480294FEF750FD52
:101830004FF44060CDE90005694602940448FEF784
:1018400047FD05B030BD0000001002400008014017
:10185000000C01400F4810B50D4901604FF4827132
:10186000416000218160C1604FF400720161C0E9F4
:1018700005121022C0E907214162510281620A214A
:10188000C162FFF775F9002800D0FEE710BD000027
:10189000003800403400002010B5134886B04FF0E7
:1018A0008041016041F61F410024C0E90114092173
:1018B000C0E903148461FFF761FC00B1FEE74FF457
:1018C0008050009069460848FFF792FC00B1FEE79F
:1018D000049404A904480594FFF728FC002800D0CC
:1018E000FEE706B010BD00008C0000200B4810B5CC
:1018F000094901604FF4E1314160002181600C220F
:10190000C160C0E904128161C161FFF739FE00289E
:1019100000D0FEE710BD000000380140CC000020E0
:101920000B4810B5094901604FF416514160002180
:1019300081600C22C160C0E904128161C161FFF7BE
:101940001FFE002800D0FEE710BD0000004400404C
:101950000C010020FEE770472DE9F0411B4886B0DE
:10196000816941F0080181618069012400F008006B
:101970000490C020CDE900040320DFF854800390D8
:1019800069464046FEF7A4FC2002002502268DE8A9
:10199000610069464046FEF79BFC00224FF4E0716F
:1019A0004046FEF78AFD4FF46047CDE90076694670
:1019B0004046FEF78DFC012239464046FEF77DFD8C
:1019C00004480560446006B0BDE8F08100100240A4
:1019D000000C01409881214210B5114C002020607C
:1019E000052210492A2000F0BDF80121212000F035
:1019F000D7F80121222000F0D3F82821252000F07B
:101A0000CFF82021312000F0CBF80F21262000F064
:101A1000C7F80F21202000F0C3F80120206010BD7E
:101A2000988121424E5200082DE9F0410C4E884623
:101A300000211546C6F89C1100F0D6F80746002490
:101A400006E0FF2000F0D0F808F80400641CE4B2BF
:101A5000AC42F6D30120C6F89C013846BDE8F081BF
:101A60000080214210B5054C0021216000F0BCF837
:101A7000FF2000F0B9F80121216010BD9C812142B6
:101A800070B505460720FFF7EDFF04460146272005
:101A900000F086F860060AD5202229466120FFF76B
:101AA000C3FFFF21E22000F07BF8002070BD012081
:101AB00070BD000010B5144C0020206005221349B1
:101AC000302000F04FF811490522491D2A2000F06E
:101AD00049F80121212000F063F80121222000F0C3
:101AE0005FF81A21242000F05BF82821252000F05F
:101AF00057F80F21262000F053F80E21202000F087
:101B00004FF80120206010BD988121424952000801
:101B100010B5134C0021C4F8981101462022A020D2
:101B200000F020F80120C4F8980100BFD4F820018B
:101B30000028FBD10720FFF795FF04460146272028
:101B400000F02EF8E00605D5FF21E12000F028F88E
:101B5000102010BDA00601D5202010BDFF2010BD13
:101B6000008021422DE9F0410C4F0D460021164620
:101B7000C7F89C1100F038F88046002406E000BF4A
:101B800015F8010B00F030F8641CE4B2B442F7D34E
:101B90000120C7F89C014046BDE8F0810080214249
:101BA00070B5074C0E460021216000F01DF8054677
:101BB000304600F019F801202060284670BD000072
:101BC0009C8121420907090E002803DA00F00F006A
:101BD000024A00E0024A81547047000014ED00E020
:101BE00000E400E07047000001B582B000208DF8ED
:101BF000000001231A4602A90548FFF7D1F8012386
:101C00001A4669460248FFF723F89DF800000EBD0A
:101C10003400002038B50B46009204460022802193
:101C200000F008F8002804D0606D40F020006065E6
:101C3000032038BD2DE9F0411D4617460E460446E7
:101C4000DDF8188034E0681C32D02DB1FEF73AFC84
:101C5000A0EB0800A8422BD32068416821F0E001E6
:101C600041606068B0F5827F0BD1A068B0F5004F8D
:101C700002D0B0F5806F04D12068016821F04001E6
:101C80000160A06AB0F5005F0AD1206801684DF6D6
:101C9000FF72114001602068016841F40051016049
:101CA000012050346070002020700320BDE8F081D6
:101CB0002068806836EA000004D00020B842C2D113
:101CC0000020F3E70120F9E7704710B5FEF700FCAC
:101CD000BDE81040FFF724BA30B58FB001210804E9
:101CE000CDE900100024029402250491CDE90750AB
:101CF0004FF4E01009906846FEF7B4FD00B1FEE72E
:101D00000F20CDE90A054FF48060CDE90C40022197
:101D10000AA80E94FEF79CFC00B1FEE7FEF742FD18
:101D20004FF47A71B0FBF1F0FFF7E6F90420FFF70A
:101D3000D6F900221146501EFEF746FC0FB030BD0A
:101D40000D48016841F00101016041680B4A1140F2
:101D5000416001680A4A11400160016821F4802154
:101D60000160416821F4FE0141604FF41F01816070
:101D70000449C00308607047001002400000FFF8EB
:101D8000FFFFF6FE08ED00E00148FFF7AABA0000E9
:101D90008C000020F0B50268164B174C174D4FF021
:101DA0008047984205D0B84203D0A04201D0A84253
:101DB00003D122F070064A683243984205D0B842F7
:101DC00003D0A04201D0A84203D122F44074CA68D3
:101DD000224322F080044A69224302608A68C26278
:101DE0000A688262984201D1096901630121416157
:101DF000F0BD0000002C014000040040000800403D
:101E000010B5846842EA032224F47F440A43224343
:101E1000826010BD826822F070020A4342F007011E
:101E20008160704710B5036A046A24F001040462FB
:101E3000846924F0F00444EA021423F00A020A43FD
:101E40008461026210BD10B5036A23F010030362BF
:101E50008369046A23F4704343EA023224F0A00346
:101E600043EA01118261016210BD10B5406A002190
:101E7000C185C184FFF7FBFA10BD0168CA6822F46E
:101E80009072CA6001684A6922F001024A61202109
:101E900080F83A10704710B590F83A10222901D016
:101EA000022010BD8168B1F5805F11D00169002961
:101EB00001681FD0496801F07F03816A4A1C826271
:101EC0000B70C18D491E0904090CC18518D02BE087
:101ED0000269816A002A0268526805D0D2B20A807B
:101EE000816A491C8162ECE7C2F308020A80816AB8
:101EF000891CF7E74A68816A4B1C83620A70E0E735
:101F00000168CA6822F02002CA600168CA6822F427
:101F10008072CA6001684A6922F001024A61202188
:101F200080F83A10FFF7CAFB002010BD2DE9F04100
:101F3000044600680169E26821F4405111430161DF
:101F40002169A0680843616908432168CA6841F2B1
:101F50000C639A430243CA6020684169A26921F474
:101F60004071114341614C49206864253226884202
:101F70003CD1FEF72DFC00EBC00101EB00106168C5
:101F80008900B0FBF1F7FEF723FC00EBC00101EB89
:101F900000106168B0468900B0FBF1F0B0FBF5F0CD
:101FA0006FF01801484307EB800106EB0110B0FB0E
:101FB000F5F000F0F006FEF70BFC00EBC00101EBC2
:101FC000001061688900B0FBF1F0B0FBF5F006EBA2
:101FD0000016FEF7FDFB00EBC00101EB001061688D
:101FE0008900B0FBF1F7FEF7F3FB3BE0FEF7E0FB07
:101FF00000EBC00101EB001061688900B0FBF1F754
:10200000FEF7D6FB00EBC00101EB00106168B046A3
:102010008900B0FBF1F0B0FBF5F06FF01801484318
:1020200007EB800106EB0110B0FBF5F000F0F006C5
:10203000FEF7BEFB00EBC00101EB001061688900F8
:10204000B0FBF1F0B0FBF5F006EB0016FEF7B0FBCD
:1020500000EBC00101EB001061688900B0FBF1F7F3
:10206000FEF7A6FB00EBC00101EB001061688900E0
:10207000B0FBF1F0B0FBF5F06FF01801484307EB4F
:10208000800108EB0110B0FBF5F0216800F00F00B3
:1020900030448860BDE8F0810038014090F8391084
:1020A000212901D0022070478168B1F5805F016A63
:1020B0000BD04A1C0262026809785160C18C491E2B
:1020C0000904090CC1840ED017E009880268C1F325
:1020D0000801516001690029016A02D0491C0162AE
:1020E000ECE7891CFBE70168CA6822F08002CA603D
:1020F0000068C16841F04001C160002070472DE9CF
:10210000F041984617460E460446069D1DE0681CA1
:102110001BD02DB1FEF7D6F9A0EB0800A84214D9C8
:102120002068C16821F4D071C1602068416921F044
:1021300001014161202084F8390084F83A00002030
:1021400084F838000320BDE8F0812068006836EA92
:10215000000004D00020B842D9D00020F3E70120CD
:10216000F9E700000148FFF783B900000C010020E7
:10217000FEE700000FB4054B10B503A9044A02980E
:1021800000F018F810BC5DF814FB000029260008C8
:102190003000002002E008C8121F08C1002AFAD14E
:1021A00070477047002001E001C1121F002AFBD1D7
:1021B000704700002DE9FF4F8DB00F460546002601
:1021C000DEE1252874D100246D1CF149A246A14608
:1021D00001222B78203B02FA03F0084202D004438C
:1021E0006D1CF6E728782A2810D06FF02F02287887
:1021F000A0F13001092915D80AEB8A0102EB41014F
:1022000044F0020400EB010A6D1CF0E757F804AB40
:10221000BAF1000F03DA44F40054CAF1000A44F0A2
:1022200002046D1C28782E2817D115F8010F44F0F0
:1022300004042A280ED06FF02F022878A0F1300174
:1022400009290AD809EB890102EB410100EB0109D8
:102250006D1CF2E757F8049B6D1C28786C280FD092
:1022600006DC4C2817D068280DD06A2814D104E069
:10227000742810D07A280FD10DE044F400140AE03D
:1022800044F4801401E044F440146978814202D19E
:102290006D1C04F580146D1C2A786E2A20D00DDC8C
:1022A000632A33D005DC002A6FD0582A12D1A2E06D
:1022B00011E0642A6AD0692A0CD167E0732A2FD012
:1022C00004DC6F2A6FD0702A04D199E0752A6BD094
:1022D000782A6AD01046DDE90F129047761C4EE14D
:1022E000C4F30250022806D003280AD0042801CFE4
:1022F0000AD0066043E101CF4FEAE671C0E9006110
:102300003DE101CF06803AE1067038E117F8040B91
:102310008DF8000000208DF80100EB46012003E05D
:1023200057F804BB4FF0FF3061074FF0000102D4B3
:102330000DE008F10101884649450FDA8045F8DBD8
:102340001BF808100029F4D108E008F101018846C3
:102350008142FADB1BF808100029F6D1DDE90F23D2
:10236000AAEB08008146214600F03BF9304400EB1F
:10237000080604E0DDE90F121BF8010B9047B8F1E5
:102380000108F7D221464846F4E0FDE00A21C4F3F3
:1023900002534FF0000B0891022B07D001CFC11759
:1023A000032B09D00AE034E023E024E0FF1D27F0EE
:1023B0000707F7E8020105E000B2C117042B01D1BD
:1023C00040B2C117002907DA4FF0000CD0EB0C0027
:1023D0006CEB01012D2302E0230504D52B238DF89E
:1023E0002430012303E0E30701D02023F7E79846D8
:1023F00050E00A210EE010204FF0000B08900CE096
:1024000010214FF0000B44F004044FF0080908912C
:1024100003E008214FF0000B0891C4F30253022B94
:1024200004D001CF0021032B06D006E0FF1D27F0CA
:102430000707F7E8020103E080B2042B00D1C0B225
:102440004FF00008230725D5702A2AD0DDF820C0D8
:102450008CF0100C5CEA0B0C09D150EA010306D099
:1024600030238DF824308DF8252002239846DDF89E
:1024700020C08CF0080C5CEA0B0C0BD150EA010375
:1024800001D1630706D530238DF824304FF00108C1
:10249000A9F10109582A09D03EA20B9208AA0A9272
:1024A00011E040238DF824300123DFE73EA2F4E75A
:1024B0005B46089AFDF76AFE0B9B9B5C0A9AA2F1A9
:1024C00001020A92137050EA0102F1D10A98ADEBB1
:1024D000000000F1200B600702D524F4803401E0F5
:1024E0004FF00109D94502DDA9EB0B0000E0002007
:1024F00000EB0B0141440890AAEB010AE00306D46B
:10250000DDE90F232146504600F06BF80644002019
:1025100008E009A911F80900DDE90F129047761CBF
:1025200009F1010081464045F3DBE0030CD5DDE90C
:102530000F232146504600F054F8064404E0DDE93C
:102540000F1230209047761C0899481E08900029E9
:10255000F5DC08E00A980A990078491C0A91DDE93F
:102560000F129047761CBBF10001ABF1010BF1DCBF
:1025700021465046DDE90F2300F020F806446D1C8B
:10258000287800287FF41DAE11B03046BDE8F08FEA
:102590000928010030313233343536373839616239
:1025A00063646566000000003031323334353637FD
:1025B0003839414243444546000000002DE9F041CE
:1025C000044600251E461746880405D406E0394611
:1025D0002020B04705F10105641EF8D52846BDE866
:1025E000F0812DE9F041044600251E469046C803BF
:1025F00001D5302700E02027880405D506E04146B4
:102600003846B04705F10105641EF8D52846BDE8F7
:10261000F08101460020C1F3072262F3070061F355
:102620000F20704700BA704713B54FF6FF730122B1
:1026300069460248FFF75AF800981CBDCC000020FC
:102640002DE9F0470024804626464FF00109114F3E
:102650001AE000BFC4EBC40101EB4105D8F801004A
:1026600005F1090101446A1D0988104489B2006816
:10267000FDF71AFF30B9D8F80100415D09FA01F001
:10268000304386B2641CE4B23878A042E2D83046C7
:10269000BDE8F0870000002048B1420707D000F0F5
:1026A0000700C0F10800884203D3002070470829C2
:1026B000FBD90120704730B5002248B9501E30BD0B
:1026C0008B1A0344845C13F8015D85541C70521C02
:1026D000B2EB510FF4D3002030BD000070B50500FF
:1026E0000C464FF000007DD0002CFCD021782A78D9
:1026F000914203D06CA0FFF73DFD012061786A781C
:10270000914203D06EA0FFF735FD0120A178AA7891
:10271000914203D070A0FFF72DFD0120E178EA7807
:10272000914203D072A0FFF725FD012021792A797B
:10273000914203D074A0FFF71DFD012061796A79F1
:10274000914203D076A0FFF715FD0120A179AA7967
:10275000914203D078A0FFF70DFD0120E179EA79DD
:10276000914203D07AA0FFF705FD0120217A2A7A51
:10277000914203D07CA0FFF7FDFC0120617A6A7AC8
:10278000914203D07EA0FFF7F5FC0120A17AAA7A3E
:10279000914203D081A0FFF7EDFC0120E17AEA7AB3
:1027A000914203D082A0FFF7E5FC0120217B2A7B28
:1027B000914203D084A0FFF7DDFC0120617B6A7B9E
:1027C000914203D089A0FFF7D5FC0120A17BAA7B11
:1027D000914203D08CA0FFF7CDFC0120E17BEA7B86
:1027E000914200E059E003D08FA0FFF7C3FC012025
:1027F000217C2A7C914203D094A0FFF7BBFC0120EE
:10280000617C6A7C914203D097A0FFF7B3FC012062
:10281000A17CAA7C914203D09AA0FFF7ABFC0120D7
:10282000D4F81310D5F81320914203D09CA0FFF7E1
:10283000A1FC0120D4F81710D5F81720914203D03D
:10284000A0A0FFF797FC0120E17EEA7E914203D031
:10285000A6A0FFF78FFC0120217F2A7F914203D0A1
:10286000A9A0FFF787FC0120617F6A7F914203D016
:10287000ACA0FFF77FFC0120A17FAA7F914203D08B
:10288000AFA0FFF777FC0120E17FEA7F914203D000
:10289000B2A0FFF76FFC012070BDB7A0FFF76AFC84
:1028A0004FF0FF3070BD000076616C75656C696734
:1028B000687431204368616E6765640A0000000037
:1028C00076616C75656C6967687432204368616E07
:1028D0006765640A0000000076616C75656C696765
:1028E000687433204368616E6765640A0000000005
:1028F00076616C75656C6967687434204368616ED5
:102900006765640A0000000076616C75656C696734
:10291000687435204368616E6765640A00000000D2
:1029200076616C75656C6967687436204368616EA2
:102930006765640A0000000076616C75656C696704
:10294000687437204368616E6765640A00000000A0
:1029500076616C75656C6967687438204368616E70
:102960006765640A0000000076616C75656C6967D4
:10297000687439204368616E6765640A000000006E
:1029800076616C756577617465725F6865617465A1
:1029900072204368616E6765640A000076616C7539
:1029A000655456204368616E6765640A0000000044
:1029B00076616C75656375727461696E20436861D8
:1029C0006E6765640A00000076616C756561697206
:1029D0005F636F6E646974696F6E5F6F6E6F66665A
:1029E000204368616E6765640A00000076616C755B
:1029F000656D757369635F6F6E6F666620436861AE
:102A00006E6765640A00000076616C75656D7573AC
:102A100069635F707265766E657874204368616E75
:102A20006765640A0000000076616C75656D7573FA
:102A300069635F766F6963655F7570646F776E2039
:102A40004368616E6765640A0000000076616C751A
:102A500065737769746368315F6F6E6F6666204374
:102A600068616E6765640A0076616C756573776985
:102A7000746368325F6F6E6F6666204368616E676D
:102A800065640A0076616C75657377697463683391
:102A90005F6F6E6F6666204368616E6765640A00EB
:102AA00076616C75656169725F636F6E6469746984
:102AB0006F6E5F6D6F6465204368616E6765640A61
:102AC0000000000076616C75656169725F636F6E0E
:102AD000646974696F6E5F74656D70657261747539
:102AE0007265204368616E6765640A0076616C7583
:102AF00065646F6F725F6F6E6F6666204368616EAC
:102B00006765640A0000000076616C756577696E20
:102B1000646F77315F6F6E6F6666204368616E67C2
:102B200065640A0076616C756577696E646F7732EB
:102B30005F6F6E6F6666204368616E6765640A004A
:102B400076616C756577696E646F77335F6F6E6FF2
:102B50006666204368616E6765640A0076616C751D
:102B60006577696E646F77345F6F6E6F666620435A
:102B700068616E6765640A0067697A436865636BBC
:102B80005265706F7274204572726F72202C2049EA
:102B90006C6C6567616C20506172616D0A000000A9
:102BA0002DE9F84317460C4605004FF0FF367DD05F
:102BB000002CFCD0002FFAD00321FFF77CFD401C35
:102BC00075D028784FF00308C00704F1010610D033
:102BD00021781120EB1C885520780021401C2070A2
:102BE00001220846CDF8008001F042FA00B1012030
:102BF00038702878800710D5217812200122885556
:102C00002078EB1C401C207011460020CDF800807D
:102C100001F02EFA00B1012078702878400710D515
:102C200021781320EB1C885520780122401C20704D
:102C300002210020CDF8008001F01AFA00B1012035
:102C4000B8702878000710D521781420EB1C88551F
:102C500020780122401C207003210020CDF8008044
:102C600001F006FA00B10120F8702878C00610D5EE
:102C700021781520EB1C885520780122401C2070FB
:102C800004210020CDF8008001F0F2F900B101200C
:102C900038712878800613D52178162001228855AE
:102CA0002078401CEB1C2070052101E032E133E16B
:102CB0000020CDF8008001F0DBF900B1012078712F
:102CC0002878400610D521781720EB1C88552078ED
:102CD0000122401C207006210020CDF8008001F068
:102CE000C7F900B10120B8712878000610D5217805
:102CF0001820EB1C885520780122401C20700721E9
:102D00000020CDF8008001F0B3F900B10120F87186
:102D10006878C00710D021781920012288552078C2
:102D2000EB1C401C207008211046CDF8008001F0FB
:102D30009FF900B1012038726878800710D521789A
:102D40001A20012288552078EB1C401C2070092194
:102D50001046CDF8008001F08BF900B101207872A7
:102D60006878400710D521781B20012288552078EB
:102D7000EB1C401C20700A211046CDF8008001F0A9
:102D800077F900B10120B8726878000710D5217872
:102D90001C20012288552078EB1C401C20700B2140
:102DA0001046CDF8008001F063F900B10120F872FF
:102DB0006878C00610D521781D200122885520781A
:102DC000EB1C401C20700C211046CDF8008001F057
:102DD0004FF900B1012038736878800610D521784A
:102DE0001E20012288552078EB1C401C20700D21EC
:102DF0001046CDF8008001F03BF900B10120787356
:102E00006878400610D521781F2001228855207847
:102E1000EB1C401C20700E211046CDF8008001F004
:102E200027F900B10120B8736878000610D5217821
:102E30002020012288552078EB1C401C20700F2197
:102E40001046CDF8008001F013F900B10120F873AD
:102E5000A878C00710D021782120EB1C8855207855
:102E60000122401C207010210220CDF8008001F0CA
:102E7000FFF800B101203874A878800710D52178B8
:102E80002220EB1C885520780122401C2070112143
:102E90000220CDF8008001F0EBF800B10120787439
:102EA000A878400710D521782320EB1C885520787E
:102EB0000122401C207012210220CDF8008001F078
:102EC000D7F800B10120B874A87800070FD5217891
:102ED0002420EB1C885520780122401C20701321EF
:102EE0000220CDF8008001F0C3F8C7F81300A878DD
:102EF000C0060CD521782520885520781021401C4B
:102F00002070AA79012001F0FDF8C7F81700002011
:102F1000BDE8F88303A000E00DA0FFF72BF93046D1
:102F2000F6E7000067697A44617461506F696E74F6
:102F3000324576656E74204572726F72202C20497E
:102F40006C6C6567616C20506172616D0A000000F5
:102F500067697A427974654F72646572457863680F
:102F6000616E6765204572726F720A00F8B50D4692
:102F700004004FF0FF367CD0002DFCD000202880CC
:102F8000A87028712078002100902B460122084665
:102F900001F046F86078012200902B46114600208F
:102FA00001F03EF8A07800902B460122022100207B
:102FB00001F036F8E07800902B4601220321002032
:102FC00001F02EF8207900902B46012204210020E8
:102FD00001F026F8607900902B460122052100209F
:102FE00001F01EF8A07900902B4601220621002056
:102FF00001F016F8E07900902B460122072100200D
:1030000001F00EF8207A012200902B46082110468C
:1030100001F006F8607A012200902B460921104643
:1030200000F0FEFFA07A012200902B460A211046F4
:1030300000F0F6FFE07A012200902B460B211046AB
:1030400000F0EEFF207B012200902B460C21104661
:1030500000F0E6FF607B012200902B460D21104618
:1030600000F0DEFFA07B012200902B460E211046CF
:1030700000E02BE000F0D4FFE07B012200902B4623
:103080000F21104600F0CCFF207C00902B4601223F
:103090001021022000F0C4FF607C00902B4601222A
:1030A0001121022000F0BCFFA07C00902B460122E1
:1030B0001221022000F0B4FFD4F81300022807D335
:1030C00023A000BFFFF756F83046F8BD2FA0F9E760
:1030D00000902B4601221321022000F0A1FFE07E88
:1030E00000902B4601220021042000F099FF207F50
:1030F000012200902B461146042000F091FF607FD2
:1031000000902B4601220221042000F089FFA07FBD
:1031100000902B4601220321042000F081FFE07F74
:10312000042100902B460122084600F079FF03217C
:103130002846FFF7C0FA0121281DFFF7BCFAD4F892
:1031400017201021012000F0E0FFE8700020F8BDFA
:103150005B4552524F525D2076616C7565616972B4
:103160005F636F6E646974696F6E5F6D6F64652015
:103170004572726F72202C20496C6C6567616C20FF
:103180004F766572737465700A00000067697A444F
:10319000617461506F696E7473325265706F7274CE
:1031A00044617461204572726F72202C20496C6CEE
:1031B0006567616C20506172616D0A002DE9F04114
:1031C000074600F05BF81E49044688463846FFF77C
:1031D00085FA1B4D253D012811D11AA0FEF7CAFF23
:1031E00029463846FFF7C2FE20B9052229460420A9
:1031F00000F0B4FE202239464046FCF7A3FF1748F2
:10320000B4FBF0F100FB1140002816D1144EB06859
:10321000A04212D013A0FEF7ADFF29463846FFF7B3
:10322000A5FE20B905222946042000F097FE2022A1
:1032300039464046FCF786FFB460BDE8F0810000E7
:10324000150300206368616E6765642C20726570E9
:103250006F727420646174610A000000C027090065
:1032600018000020496E666F3A20363030532072C5
:1032700065706F727420646174610A00014840686F
:10328000704700001000002010B5134C94F8460061
:10329000012818D194F84500022815D2FFF7EEFF57
:1032A000D4F86510401AC8280DD9FFF7E7FF14F8C5
:1032B000453F0146226A09A0FEF75CFF00F07CFD55
:1032C0002078401C207010BD03482421BDE8104028
:1032D0004530FCF750BF0000EB0100205761726ED3
:1032E000696E673A67697A50726F746F636F6C5278
:1032F0006573656E644461746120256420256420D3
:1033000025640A003EB5F8B101680091406801905B
:103310009DF80400401C8DF804000520FFF779F9A2
:10332000ADF802000921684600F080FD8DF8080024
:103330000921684601F000FF041E03DA014605A0DA
:10334000FEF718FF20463EBD09A0FEF713FF4FF021
:10335000FF303EBD4552523A20756172742077723B
:10336000697465206572726F72202564200A0000FE
:103370004552523A2067697A50726F746F636F6C6E
:10338000436F6D6D6F6E41636B2064617461206982
:103390007320656D707479200A0000003EB50D46FB
:1033A000040021D0684600F0B5F912208DF8040021
:1033B00060798DF805000620FFF72BF9ADF80200C3
:1033C0008DF808500A21684600F030FD8DF809009C
:1033D0000A21684601F0B0FE041E03DA014605A08A
:1033E000FEF7C8FE20463EBD09A0FEF7C3FE4FF023
:1033F000FF303EBD4552523A20756172742077729B
:10340000697465206572726F72202564200A00005D
:1034100067697A50726F746F636F6C4572726F7206
:10342000436D64204572726F72202C20496C6C656C
:1034300067616C20506172616D0A000010B59EB02A
:1034400004004FD0684600F065F902208DF80400B2
:1034500060798DF8050026A02022D0E90010CDE982
:10346000021026A1D1E90001CDE9040126A0D0E98E
:103470000010CDE9081027A1D1E90001CDE906012E
:1034800027A10AA8FCF75EFE20222EA10DF1520012
:10349000FCF758FE0020CDF84A00CDF84E009DF80C
:1034A000510040F002008DF851000020FFF7B1F804
:1034B000ADF848006F20FFF7ACF8ADF802007321BB
:1034C000684600F0B3FC8DF872007321684601F085
:1034D00033FE041E03DA014623A0FEF74BFE20460E
:1034E0001EB010BD27A0FEF745FE4FF0FF30F7E7F6
:1034F0003030303030303034000000003030303088
:103500003030303200000000303330333030303073
:103510000000000030333031303130300000000026
:103520003632626132386531633338303461396341
:10353000626239623339613337393737316235384E
:10354000000000003339326362323935653037327A
:103550003463313139653466336636303332643240
:1035600061613133000000004552523A20756172AA
:1035700074207772697465206572726F7220256499
:10358000200A000067697A50726F746F636F6C472E
:103590006574446576696365496E666F204572722D
:1035A0006F72202C20496C6C6567616C20506172D1
:1035B000616D0A002DE9F84F4FF0000690460C4669
:1035C0005FEA000A35464FF0FF390ED06CB1B8F112
:1035D000000F0AD0504601F022FC10F0FF0707D080
:1035E0004FF0FF0BDFF8F89055E03EA0FEF7C2FD6C
:1035F0004846BDE8F88F01226946504601F045FC77
:10360000F0B399F80100FF2805D19DF80000FF28CC
:1036100007D0552833D099F80010484601291BD00F
:103620002DE099F80010484661B18188042926D917
:10363000A94224D084F800B084F801B00221A9F88E
:1036400004101CE084F800B084F801B002218180ED
:10365000012189F8001012E080889DF80020225492
:10366000401C80B2A9F80400042808D96088FEF73D
:10367000D0FF001D85B2B9F80400A8420DD000E0CB
:1036800008E09DF8001089F8011099F80210491C13
:1036900089F80210761CBE42ADDBB9F804104E4624
:1036A00004291AD9A94218D1204600F0BFFBB288DC
:1036B000A11811F8011C81420CD121462A46084666
:1036C000FCF740FDA8F8005000203070B080B070CA
:1036D00070708EE76FF001008BE7012089E7000032
:1036E0001800002067697A50726F746F636F6C47BF
:1036F00065744F6E655061636B6574204572726FBF
:1037000072202C20496C6C6567616C20506172617D
:103710006D0A000010B538B1002101604160FF2141
:1037200001704170002010BD0248FEF723FD4FF0EC
:10373000FF3010BD205200082DE9F0438FB09846AD
:1037400017465FEA010906464FF0000525D0B8F19B
:10375000010F2AD0781D84B223462A46394628A074
:10376000FEF708FDFF208DF800008DF80100200A0B
:103770008DF802008DF803403079401C8DF804006C
:1037800070798DF8050000208DF8060008208DF86E
:103790000780B8F1010F0CD016E023A0FEF7EAFC79
:1037A0004FF0FF300FB0BDE8F083357AE819801D87
:1037B000D1E78DF808500DF109002A4606F10901FC
:1037C000FCF7C0FC05F109006D4627B128443A46D4
:1037D0004946FCF7B7FC211D684600F027FB291974
:1037E000C870211D684601F0A7FC011E05DA14A06F
:1037F000FEF7C0FC6FF00100D4E70020D2E7000024
:103800006C656E203D202564202C20734469644C37
:10381000656E203D202564202C646174615F6C65B9
:103820006E203D2025640A005B4552525D202064D5
:10383000617461204973204E756C6C200A00000091
:1038400075617274207772697465206572726F7227
:10385000202564200A0000002DE9F05F91F8008027
:103860000A9D1F4616460C004FF0FF3B03D017B1D0
:103870000DB120B150E029A0FEF77CFC25E03348D3
:1038800027218246FCF777FC4046DFF8C0804FF0E6
:103890000009A8F16908012806D04FF0030A0228A0
:1038A0000CD0052838D120E0284A5146A132601CAE
:1038B000FFF776F9012188F800102BE023499C31AD
:1038C00001F12500FFF752FB10B15846BDE8F09F0B
:1038D0001E489730D0F80510C7F80110407A78716B
:1038E00087F800A00620286016E01848721E611CA8
:1038F0004C38FCF727FC761E08F14A00C8F83960FE
:103900001249C37F491C10225A54C17F491CC177F8
:1039100088F800A0C5F800900020D7E767697A50C2
:10392000726F746F636F6C49737375656450726FF7
:1039300063657373204572726F72202C20496C6C22
:103940006567616C20506172616D0A00540200204D
:103950002DE9F04106002FD03089FEF75AFE854F41
:103960003081854C38784FF00208C0F38001307AFE
:1039700004F19105C0F3800291423DD042074FF01F
:1039800000014FEAC0701ED548B114F8900F4155A0
:103990002078401C04F8900978A0FEF7EBFB307A01
:1039A000800729D514F8901F012048552078401C25
:1039B00004F8900979A01DE07FA0FEF7DBFB4FF033
:1039C000FF30BDE8F08148B114F8900F41552078E0
:1039D000401C04F8900969A0FEF7CCFB307A800700
:1039E0000AD514F8901F01F805802078401C04F8CF
:1039F00090097DA0FEF7BEFB3878317AC0F3C00392
:103A0000C1F3C002934219D062F3C30038700807B3
:103A100009D514F8901F032048552078401C04F85D
:103A2000900978A008E014F8901F042048552078E9
:103A3000401C04F890097BA0FEF79CFB3878317A93
:103A4000C0F30013C1F30012934219D062F30410C3
:103A50003870C80609D514F8901F052048552078FD
:103A6000401C04F8900977A008E014F8901F062085
:103A700048552078401C04F890097AA0FEF77AFB9C
:103A80003978307AC1F34013C0F34012934219D011
:103A900062F345113970800609D514F8901F07208C
:103AA00048552078401C04F8900977A008E014F8E5
:103AB000901F082048552078401C04F8900979A0F0
:103AC000FEF758FB7878717AC0F3C003C1F3C002E7
:103AD000934219D062F3C3007870080709D514F82F
:103AE000901F0B2048552078401C04F8900975A0C1
:103AF00008E014F8901F0C2048552078401C04F86A
:103B0000900977A0FEF736FB7878727AC0F300133D
:103B1000C2F300118B4219D061F304107870D00603
:103B200009D514F8901F092048552078401C04F846
:103B3000900973A008E014F8901F0A2048552078D7
:103B4000401C04F8900975A0FEF714FB14F8901FB0
:103B50000D2048552078401C2070707A00F0070135
:103B600084F8BA1074A0FEF705FB04F8908C0020CE
:103B700027E700001E000020EB0100204F6E426F7F
:103B8000617264696E673A20536F66744150206FAA
:103B90007220576562206D6F64650A004F6E426F38
:103BA000617264696E673A204169724C696E6B207C
:103BB0006D6F64650A00000067697A50726F746FF8
:103BC000636F6C4D6F64756C6553746174757320AD
:103BD0004572726F72202C20496C6C6567616C2095
:103BE000506172616D0A00004F6E426F61726469CC
:103BF0006E673A2053746174696F6E206D6F6465EF
:103C00000A00000057694669207374617475733A3D
:103C100020696E2062696E64696E67206D6F6465ED
:103C20000A00000057694669207374617475733A1D
:103C3000206F75742062696E64696E67206D6F64B1
:103C4000650A000057694669207374617475733A98
:103C500020636F6E6E656374656420726F75746542
:103C6000720A000057694669207374617475733A6B
:103C700020646973636F6E6E656374656420726F30
:103C8000757465720A000000576946692073746193
:103C90007475733A20636F6E6E6563746564206D2E
:103CA000326D0A0057694669207374617475733AFE
:103CB00020646973636F6E6E6563746564206D3232
:103CC0006D0A000057694669207374617475733A10
:103CD0002061707020636F6E6E6563740A0000006F
:103CE00057694669207374617475733A206E6F204A
:103CF00061707020636F6E6E6563740A000000006F
:103D000057694669207374617475733A20696E202F
:103D100074657374206D6F64650A000057694669A5
:103D2000207374617475733A206F757420746573B1
:103D300074206D6F64650A005253534920697320E3
:103D40002564200A0000000010B518B314498268E9
:103D5000A1F1B3040A60C2684A60028A0A81807CC9
:103D60008872B4F8B300FEF754FCA4F8B300D4F89A
:103D7000BB00FEF757FCC4F8BB00E27F04F1200053
:103D80000E211154E07F401CE077042004F8980CC9
:103D9000002010BD03A0FEF7EDF94FF0FF3010BD7D
:103DA000360300204552523A204E54502069732069
:103DB000656D707479200A0010B50D4C94F84600BA
:103DC000002813D00BA0FEF7D5F9B4F8631004F166
:103DD000470001F0B1F9B4F86310814202D00DA0A0
:103DE000FEF7C8F9FFF74AFAC4F8650010BD0000F5
:103DF000EB0100205761726E696E673A2074696D3D
:103E0000656F75742C20726573656E6420646174CF
:103E100061200A004552523A20726573656E642033
:103E200064617461206572726F720A0010B50300DC
:103E30004FF0000003D011B10222491E05E000201E
:103E400010BD9C5C521C2044C0B28A42F9D310BD04
:103E500070B50C46050014D024210D48FCF78BF9F1
:103E60000B4822462946801CFCF76CF9084D0120BE
:103E70002D1D6C8305F8030CFFF700FAE8610020A4
:103E800070BD04A0FEF776F94FF0FF3070BD000062
:103E9000300200204552523A2064617461206973F7
:103EA00020656D707479200A0000000010B50A4981
:103EB00058B109790079491C814204D1064824216E
:103EC000801EFCF758F9002010BD04A0FEF752F93F
:103ED0004FF0FF3010BD0000320200204552523A30
:103EE000206461746120697320656D707479200AA3
:103EF0000000000070B50C464FF0FF3560B10A4677
:103F00000146064801F000F8A04204D004A000BF1A
:103F1000FEF730F9284670BD08A0F9E783030020BA
:103F20004552523A204661696C656420746F207274
:103F3000625772697465200A000000004552523AC7
:103F40002067697A507574446174612062756620D7
:103F5000697320656D707479200A00007FB516467C
:103F60000C0005462CD06846FFF7D4FB05208DF8E1
:103F70000400194803688DF805305B1C03608DF858
:103F800008500B20FEF745FBADF8020032462146F3
:103F90000DF10900FCF7D6F80F216846FFF746FF40
:103FA0008DF80E000F21684601F0C6F8041E0DDAE8
:103FB00001460AA0FEF7DEF86FF0010004B070BD04
:103FC0000DA0FEF7D7F84FF0FF30F7E70F21684656
:103FD000FFF73EFF2046F1E7280200204552523A03
:103FE0002075617274207772697465206572726FD2
:103FF00072202564200A000067697A5265706F722A
:104000007444617461204572726F72202C20496C77
:104010006C6567616C20506172616D0A0000000080
:1040200070B50E46049D04464BB111463046FEF76E
:1040300033FB06F0070128B1012808D016E04FF045
:10404000FF3070BD185D8D40284318550EE0EAB270
:10405000C1F10806F240FF20F04028401D198840B9
:104060006E7816436E701A5D02431A55002070BDBB
:104070002DE9F0438DB01546149F8946064600246D
:104080004FF0FF38DBB1D7B13A4619466846FCF726
:1040900059F8012F05D939466846FEF70CFB401C3C
:1040A0000DD029464846FEF7F7FA020068464FF061
:1040B000FF0309F0070106D0012A0BD017E04046A4
:1040C0000DB0BDE8F083845DC5F10800CC40C3406D
:1040D0001C400CE08219805D5478C1F10802AD1AD1
:1040E000C5F10805EB401C40C840944004432046FD
:1040F000E6E7000002484168491C41607047000043
:104100001000002002FB00107047511AB1FBF0F0C4
:10411000704700002DE9FF470D4606004FF00004F0
:1041200007D035B1A1464FF0010ADFF878815E4F24
:10413000A8E04FF0FF3004B0BDE8F08730194078B8
:1041400026282CD2DFE800F09C9C9C9C9C9C9C9C8C
:104150009C9C9C9C9C8990A48C1333373B3F434789
:104160004B4F53575B5F63676B6F73777B83297824
:1041700039704EA0FDF7FEFF387801284FF000009F
:104180000ED000F06FFF88F8059088F806A000BFF9
:10419000FDF790FC4348FDF7BBFCFDF71DFC6FE00D
:1041A00000F06AFF88F805A088F80690F0E76978C3
:1041B000797044A048E0A978B97048A044E0E97853
:1041C000F9704CA040E02979397150A03CE0697940
:1041D000797154A038E0A979B97158A034E0E9792F
:1041E000F9715CA030E0297A397260A02CE0697A1C
:1041F000797264A028E0A97AB9726AA024E0E97A09
:10420000F9726DA020E0297B397371A01CE0697BF5
:10421000797378A018E0A97BB9737DA014E0E97BDD
:10422000F97383A010E0297C39748AA00CE0697CC2
:10423000797490A008E0A97CB97496A004E0D5F840
:104240001310C7F813109BA0FDF794FF18E0D5F8E2
:104250001710C7F81710A0A0F6E72978A8A0F3E771
:10426000AAA0FDF787FF0BE02879AA796979AB68E6
:104270008DE80F00EB78AA782988A9A0FDF77AFFCE
:10428000641CE4B23078A0423FF658AF002052E7F9
:10429000AEA0FDF76FFFB2A0FDF76CFF2978B4A0C8
:1042A000D2E70000AB010020CB0100204576743A34
:1042B000204556454E545F6C69676874312025640B
:1042C000200A00004576743A204556454E545F6CEE
:1042D0006967687432202564200A00004576743AC4
:1042E000204556454E545F6C6967687433202564D9
:1042F000200A00004576743A204556454E545F6CBE
:104300006967687434202564200A00004576743A91
:10431000204556454E545F6C6967687435202564A6
:10432000200A00004576743A204556454E545F6C8D
:104330006967687436202564200A00004576743A5F
:10434000204556454E545F6C696768743720256474
:10435000200A00004576743A204556454E545F6C5D
:104360006967687438202564200A00004576743A2D
:10437000204556454E545F6C696768743920256442
:10438000200A00004576743A204556454E545F7722
:10439000617465725F686561746572202564200AC6
:1043A000000000004576743A204556454E545F544F
:1043B00056202564200A00004576743A204556456B
:1043C0004E545F6375727461696E202564200A0023
:1043D0004576743A204556454E545F6169725F6375
:1043E0006F6E646974696F6E5F6F6E6F66662025AD
:1043F00064200A004576743A204556454E545F6D58
:10440000757369635F6F6E6F6666202564200A00AE
:104410004576743A204556454E545F6D7573696311
:104420005F707265766E657874202564200A0000DE
:104430004576743A204556454E545F6D75736963F1
:104440005F766F6963655F7570646F776E20256452
:10445000200A00004576743A204556454E545F7355
:104460007769746368315F6F6E6F666620256420BC
:104470000A0000004576743A204556454E545F7355
:104480007769746368325F6F6E6F6666202564209B
:104490000A0000004576743A204556454E545F7335
:1044A0007769746368335F6F6E6F6666202564207A
:1044B0000A0000004576743A204556454E545F6127
:1044C00069725F636F6E646974696F6E5F6D6F644C
:1044D000652025640A0000004576743A4556454E2D
:1044E000545F6169725F636F6E646974696F6E5F58
:1044F00074656D70657261747572652025640A005B
:10450000525353492025640A000000005452414E82
:1045100053504152454E545F44415441200A0000DB
:10452000574946495F4E5450203A205B25642D255B
:10453000642D256420253032643A253032643A25D2
:104540003032645D5B25645D200A00004D4F4455A8
:104550004C4520494E464F202E2E2E0A00000000CA
:10456000574946204D4F44554C45202E2E2E0A00CB
:104570006D6F64756C6554797065203A205B2564B5
:104580005D200A002DE9F0474FF0000592B05FEA88
:10459000000AADF804502E46A9462F4610950ED0BD
:1045A000FEF772FE844C01AA611C04F5CC70FFF783
:1045B00001F804F2571850B1801C74D0B2E07FA00B
:1045C000FDF7D8FD4FF0FF3012B0BDE8F08785A0B1
:1045D000FDF7D0FDFEF752FE0146BDF8042086A08F
:1045E000FDF7C8FD06E06019417888A0FDF7C2FD1F
:1045F0006D1CADB2BDF804008542F4D385A0FDF773
:10460000B9FD6079651C0D2846D00EDC07283FD027
:1046100006DC01281DD003281FD0062813D143E053
:104620000A2841D00C280ED13EE016283CD006DCEA
:104630000F283DD0112875D0142804D14CE018283B
:104640004FD0222855D002212846FEF7A7FE72A09F
:1046500066E02846FEF7F2FE64E0EA79A97974A0E4
:10466000FDF788FD10A80090BDF80400E119C21BF9
:10467000093A093102AB4846FFF7EEF8002851D15C
:10468000EB7902A92846109AFFF756F86CA047E08C
:104690002846FEF737FE45E02846FEF733FE28465B
:1046A000FFF756F93EE047E02846FFF7FFFB39E009
:1046B0002846FEF727FE65A0FDF75CFDFEF7DEFD50
:1046C00005464FF4167700BFFEF7D8FD401BB842F1
:1046D000FAD900F09FFB25E02846FFF7E7FB60A032
:1046E0001EE02846FFF7E2FB2846FFF72DFB64A0FB
:1046F00016E02846FFF7DAFB412205F108014046A3
:10470000FBF720FD2C4894F8DE20DF300F211154F8
:1047100094F8DE00401C84F8DE00052020705EA0C6
:10472000FDF728FD244D20786935062829D2DFE8D9
:1047300000F0280D16202D38601C0121FEF72EFEFA
:104740005CA0FDF717FD6FF001003DE72670202209
:104750005E492846FFF7DEFC2721284606E05B4934
:10476000012240312670A1F1BA0015E0FBF703FDEC
:1047700007E011492670D4F839201D312846FFF78B
:10478000C9FC5046FEF71AFD00201DE74F490C22D8
:1047900041312670A1F194000446FFF7BBFC2721AC
:1047A00008E04A4826702C38412241460446FFF76B
:1047B000B1FC41212046D9E7EB01002047697A7717
:1047C00069747348616E646C65204572726F722003
:1047D0002C20496C6C6567616C20506172616D0AB8
:1047E00000000000476574204F6E65205061636BC8
:1047F0006574210A0000000057694669324D43552F
:104800005B2534643A2534645D3A200025303278E3
:10481000200000000A0000004552523A20636D64F7
:1048200020636F6465206572726F72210A00000058
:10483000666C6167202578202578200A000000003A
:1048400041636B44617461203A200A007265706FA5
:1048500072743A4D4355207265626F6F74210A007D
:1048600041636B2050524F44554354494F4E5F4D66
:104870004F44452073756363657373200A0000001D
:1048800041636B204745545F5554542073756363EF
:10489000657373200A00000041636B204745545F35
:1048A0004D6F64756C652073756363657373200A5F
:1048B000000000004552523A20636865636B207324
:1048C000756D206572726F72210A0000F50200207A
:1048D0000B4810B53821016000F11001C16000F0F3
:1048E000CBFA50B107A000BFFDF744FCBDE8104073
:1048F0004FF4CC710848FBF73EBC08A0F4E7000079
:1049000083030020726243726561746520466169A9
:104910006C64200A00000000EB0100207262437208
:10492000656174652053756363657373200A0000C5
:10493000F0B50025334C092787B0064605285BD221
:10494000DFE800F0030D0D3555006846FEF7E2FE86
:104950000B2030E001462CA0FDF70CFC44E003A83E
:10496000FEF7D8FE8DF8107054F83D0F8DF8110049
:10497000401C20608DF814600620FDF74AFEADF85B
:104980000E000A2103A8FFF751FA8DF815000A213D
:1049900003A800F0D1FB051E03DA01461AA0FDF7BB
:1049A000E9FB0A210DF10C00FFF752FA27E06846F7
:1049B000FEF7B0FE13208DF8040054F83D0F8DF87B
:1049C0000500401C20600520FDF723FEADF8020025
:1049D00009216846FFF72AFA8DF808000921684680
:1049E00000F0AAFB051EB5DB09216846DCE7684636
:1049F000FEF790FE1520DEE70AA0FDF7BBFB07B02F
:104A00002846F0BDEB0100204552523A20756172F4
:104A100074207772697465206572726F72202564E4
:104A2000200A00004552523A204366674D6F646584
:104A3000206572726F72210A0000000010B504A098
:104A4000FDF798FBBDE810400020FFF771BF0000A4
:104A50004B455931205052455353204C4F4E47201F
:104A60002C576966692052657365740A000000005E
:104A700010B504A0FDF77EFBBDE810400320FFF752
:104A800057BF00004B455931205052455353202CFD
:104A900050726F64756374696F6E204D6F64650A40
:104AA0000000000010B505A0FDF764FB002000F039
:104AB00057F9BDE810400220FFF73ABF4B45593285
:104AC000205052455353204C4F4E47202C41697281
:104AD0004C696E6B206D6F64650A000010B505A00F
:104AE000FDF748FB002000F031F9BDE8104001203F
:104AF000FFF71EBF4B455932205052455353202CCF
:104B0000536F6674204150206D6F64650A00000089
:104B100001A0FDF72FBB00004B45593320505245F3
:104B20005353204C4F4E47202C6C65645F636F6C71
:104B30006F722079656C6C6F770A000010B509A060
:104B4000FDF718FB0F4C20212046FBF7B2FC20217B
:104B50002046FBF7A9FC0C4908B1002000E0012029
:104B6000087010BD4B455933205052455353202CEB
:104B70006C65645F636F6C6F7220637573746F6DC7
:104B80000A000000000C0140CB0100202DE9F0419B
:104B90000746002600F000FA050034D0A8044FF0C4
:104BA000010413D415E000BFD7F80120C6EBC600FE
:104BB00000EB4001535C04FA03F0284204D00D31AD
:104BC0005018006800B18047761CF6B23878B042C1
:104BD000EAD8280417D5002612E000BFD7F8012034
:104BE000C6EBC60000EB4001535C04FA03F0284218
:104BF00004D011315018006800B18047761CF6B21D
:104C00003878B042EAD8BDE8F081000010B588B02D
:104C10001D491E48CDE9000101231D4A002102A8BB
:104C200000F046F8152202A91A48FBF78BFA1A4938
:104C30001A481B4CCDE900014FF480632246002145
:104C400002A800F035F81348152202A91530FBF729
:104C500079FA14491448CDE90001E31422460021F1
:104C600002A800F025F80B48152202A92A30FBF70C
:104C700069FA0E490748C1F8010008B00846BDE8C6
:104C8000104000F035B800003D4A0008714A0008A5
:104C9000000801404C010020A54A0008DD4A000838
:104CA000000C0140114B00083D4B000800000020A3
:104CB00030B587B0DDE90A45CDF801100B49CDF8D4
:104CC0000520CDF80930CA78521CCA708DF8002032
:104CD000CDF81150CDF80D400A78521C0A701522FB
:104CE0006946FBF72FFA07B030BD00002400002012
:104CF000002806D00349097801700C2901D90C213C
:104D000001707047240000200D4810B5816986B0FD
:104D100041F0100181618069012400F010000490CD
:104D20004FF40050CDE900040020029003200390CE
:104D300069460448FBF7CCFA0348046006B010BD8E
:104D40000010024000100140B4012242002804D1AA
:104D5000012251030148FBF7B0BB7047001001402E
:104D6000002805D100224FF400510248FBF7A5BBF3
:104D70007047000000100140FBF7B2FBFCF7ACFFEE
:104D8000FCF732FDFCF788FDFCF7B0FDFCF7C8FD31
:104D9000FCF760FD002201211C20FBF715FC1C2004
:104DA000FBF706FC002211462620FBF70DFC26200F
:104DB000FBF7FEFB00F0B0F900F0B4F900F01AFACE
:104DC000FFF786FDFFF722FFFFF79EFF00F028F9AF
:104DD000FCF7C2FD08A0FDF7CDF900BF00F008FA0E
:104DE0000A48FFF7CFFB0A48FCF74AFE0028F5D136
:104DF00000F04CF9F2E700004D435520496E69740C
:104E00002053756363657373200A0000CB01002093
:104E10008B010020012080F31388FBF707BC00B54D
:104E2000010006D04A688868824205D14FF0000030
:104E300000BD4FF0FF3000BD02D2A0EB020000BD6C
:104E4000084600F013F84A688968511A401A00BDF4
:104E500000B5010007D000F009F803460846FFF747
:104E6000DEFF181A00BD4FF0FF3000BD08B100682A
:104E700070474FF0FF30704720B1C16841608160DA
:104E8000002070474FF0FF3070472DE9F0410400DB
:104E900015460F464FF0FF3020D0002F1ED060681F
:104EA000A1688842204609D2FFF7B9FFA84203D87B
:104EB0002046FFF7B4FF0546616807E0FFF7D6FF1D
:104EC0006168E2688A1A801AA84209D92A463846D7
:104ED000FBF738F96068284460602846BDE8F08137
:104EE0002046FFF7C3FF6168E2688A1A861A3246D5
:104EF0003846FBF727F9E0686060AA1BB91920461D
:104F0000FFF7C3FF3044E9E72DE9F04115460F46AE
:104F1000040008D03FB1FFF79BFFA84206D86FF00E
:104F20000100BDE8F0814FF0FF30FAE76168A0684A
:104F3000814229D82046FFF799FF0146A068E26820
:104F4000821A8E1AB54212D82A463946FBF7FAF869
:104F5000A0682844A0602046FFF788FF0146E0686B
:104F6000A2680144914200D1A0602846D9E73246A8
:104F70003946FBF7E7F8E068A060AA1BB91920469C
:104F8000FFF7C2FF3044CCE72A463946FBF7DAF890
:104F9000A0682844E8E7000070B5204C01260025F1
:104FA0002179491CC9B221711E2902D3257166706D
:104FB00002E0617801292ED16570FDF741FBA178EF
:104FC00031B1012908D002290ED0032923D11FE0D5
:104FD00008B32081A6701EE02189884202D10220F8
:104FE000A07018E0A57016E02189884204D0A57051
:104FF000E58041F4005070BDE188491C89B2E18030
:10500000642908D3E5800321A17040F4004070BDFD
:1050100021898842E6D1002070BD000024000020D4
:105020000E4810B5816986B041F008018161806940
:105030000B4C00F008000490032003900120019025
:105040002020009069462046FBF742F900222021EB
:105050002046FBF732FA06B010BD000000100240F7
:10506000000C0140002804D1002220210148FBF758
:1050700024BA7047000C0140002804D101222021ED
:105080000148FBF71ABA7047000C014010B50449FB
:105090000448FDF76FF8BDE8104000F005B80000C7
:1050A0008B010020005200080C4810B5C17801297E
:1050B00004D00BA0FDF75EF8002010BD417909B1C6
:1050C000012200E000220D494A70807900B10120E0
:1050D00088700BA0FDF74EF8012010BD8B01002059
:1050E000737562736574312064617461206E6F74CE
:1050F000206368616E676564210D0A00CB010020A2
:1051000073756273657431206461746120636861D2
:105110006E676564210D0A000148FCF75DB8000068
:105120008C000020012202490248FCF79DBA0000D1
:10513000100000200C010020F8B5050021A00E464B
:1051400000684FF00004009001D01F4F1BE04FF0AB
:10515000FF30F8BD291901221B48FCF724FB00BFD2
:1051600097F839002028FBD1022C0BD3285DFF28AB
:1051700008D1012269461448FCF715FB97F839005D
:105180002028FBD1641CB442E4D310483246416865
:105190000FA0FCF7EFFF00240DE0295D11A0FCF744
:1051A000E9FF022C06D3285DFF2803D155210DA06D
:1051B000FCF7E0FF641CB442EFD30CA0FCF7DAFF6D
:1051C0003046F8BD550000000C0100201000002002
:1051D0004D435532576946695B2534643A2534643A
:1051E0005D3A200025303278200000000A000000DF
:1051F0007047000020210148FAF7BDBFCB01002015
:1052000025730D0A000000000000000000010203E9
:105210000406070809000000000102030400000062
:105220004552523A2067697A50726F746F636F6C9F
:1052300048656164496E69742068656164206973BA
:1052400020656D707479200A0034431010013443D6
:10525000101001007452000800000020340000000B
:1052600094210008A8520008340000209C2300006C
:10527000A421000800000000000000000000000061
:1052800000A24A040000000000000000000000002E
:105290000000000000000000000000FF000000000F
:0852A000000000000000000006
:04000005080000ED02
:00000001FF
